:1000000064C000000C94A7080C94CE0886C00000C1
:1000100084C0000082C0000080C000000C940E0D5F
:100020007CC000000C94B30D78C000000C94000E4E
:1000300074C0000072C0000070C000006EC00000FC
:100040000C94F5086AC000000C946C0B0C949E0B89
:1000500064C0000062C0000060C000005EC000001C
:100060005CC000005AC0000000000008000201004F
:100070000003040700000000000000000102040863
:100080001020408001020408102001020408102002
:10009000040404040404040402020202020203032E
:1000A00003030303000000002300260029000000D2
:1000B0000000250028002B0000000000240027007D
:1000C0002A000200A400C30B2F0C11241FBECFEF87
:1000D000D8E0DEBFCDBF11E0A0E0B1E0ECEFF6E28A
:1000E00002C005900D92A637B107D9F723E0A6E725
:1000F000B1E001C01D92A03FB207E1F710E0C5E6F4
:10010000D0E004C02197FE010E946713C236D107D8
:10011000C9F70E9408100C947C1372CF70E090E035
:100120009C01220F331F820F931F8A589E4F0C94FD
:100130005B0F70E090E09C01220F331F820F931F32
:100140008A589E4F0C94950F86E791E00C94BF0E51
:10015000CF92DF92EF92FF926B017C018EE0C81686
:10016000D104E104F10428F48EE0C80ED11CE11C96
:10017000F11C60E08C2D0E94C009C601FF90EF9039
:10018000DF90CF9008950895CF93DF93EB010E9405
:100190007A0999838883DF91CF9108950895662322
:1001A00011F061E001C060E00C94C009662311F019
:1001B00061E001C060E00C94FC090E942B0A21E080
:1001C000019709F020E0822F08958091C7038130C4
:1001D00019F08230A9F175C04091BE035091BF0360
:1001E0006091C0037091C1034230510561057105F2
:1001F00009F45FC0453051056105710509F063C020
:100200009091CC03992379F09091CA03913059F0E1
:10021000923039F48093CA038093CB038093D70341
:1002200002C01092CA0385E090E0A0E0B0E08093A5
:10023000BE039093BF03A093C003B093C1030DC04E
:100240004091BE035091BF036091C0037091C10300
:10025000433051056105710541F481E08093C70386
:100260008093C8038093D6030895453051056105F6
:10027000710549F59091CC03992379F09091CA03C7
:10028000913029F0923049F01092CA0306C0809351
:10029000CA038093CB031092D70385E090E0A0E0DF
:1002A000B0E08093BE039093BF03A093C003B093CC
:1002B000C10382E08093C7038093C8031092D603E2
:1002C00008951092C70308958091C203811104C05C
:1002D00081E08093C20316C08091C303813021F076
:1002E000823009F44CC007C14091BE035091BF0356
:1002F0006091C0037091C1034630510561057105DD
:1003000009F0FBC092E09093C3038093C9038091EE
:10031000C803813039F0823061F48093C703809341
:10032000C8030BC08093C7038093C8038093D60390
:1003300006C09093C7039093C8031092D60381E040
:100340008093C6038091C503813019F0823009F093
:1003500082E08093C4038093C50381E08093CC0343
:100360008091CB03813009F4BCC0823009F082E077
:100370008093CA038093CB031092D7030895809192
:10038000BE039091BF03A091C003B091C103069733
:10039000A105B10591F41092CA031092CC031092FA
:1003A000C4031092C6031092C7031092C90381E0E0
:1003B0008093C3031092D603DFCF8091C9038111CC
:1003C00004DF8091C603882309F466C08091C403CA
:1003D000813019F0823071F15DC08091BE0390913F
:1003E000BF03A091C003B091C1030497A105B1055B
:1003F00009F052C01092C40382E090E0A0E0B0E0A7
:100400008093BE039093BF03A093C003B093C10336
:100410008091C9038111D9DE84E090E0A0E0B0E0D2
:100420008093BE039093BF03A093C003B093C10316
:1004300082E02BC08091BE039091BF03A091C003C6
:10044000B091C1030497A105B10531F51092C40321
:1004500083E090E0A0E0B0E08093BE039093BF0300
:10046000A093C003B093C1038091C9038111ADDE95
:1004700084E090E0A0E0B0E08093BE039093BF03DF
:10048000A093C003B093C10381E08093C403809321
:10049000C50302C01092C4038091CC03882369F184
:1004A0008091CA03813019F0823071F021C08091AF
:1004B000BE039091BF03A091C003B091C103892BEB
:1004C0008A2B8B2BD1F453CF8091BE039091BF0325
:1004D000A091C003B091C1030197A105B10569F4D2
:1004E00081E08093CA038093CB038093D703089560
:1004F0001092CA0308951092C30308954F925F9219
:100500006F927F928F929F92AF92BF92CF92DF9223
:10051000EF92FF921F93CF93DF93CDB7DEB72A9769
:100520000FB6F894DEBF0FBECDBFC090BA03D09017
:10053000BB03E090BC03F090BD03C701B6010E946D
:100540004C112B013C0120912E0130912F01409143
:100550003001509131010E94B21087FF0BC0F7FCAF
:1005600009C08090260190902701A0902801B090AA
:10057000290103C0812C912C540120E030E040E897
:100580005FE360912A0170912B0180912C01909181
:100590002D010E944D109B01AC01C301B2010E94CC
:1005A0009D1287FD09C01092BA031092BB031092EE
:1005B000BC031092BD030DC02FEFC21AD20AE20A8B
:1005C000F20AC092BA03D092BB03E092BC03F0924D
:1005D000BD03C0900E01D0900F01E0901001F0908B
:1005E0001101A70196016091180370911903809180
:1005F0001A0390911B030E94B2108823A1F1C70136
:10060000B60160D5882361F060910E0170910F01F1
:10061000809110019091110155D581110CC017C026
:1006200060910E0170910F01809110019091110164
:100630008CD58111E9CF80910E0190910F01A0918D
:100640001001B09111018B839C83AD83BE838B819C
:100650009C81AD81BE818093180390931903A09370
:100660001A03B0931B03C0901201D0901301E090C5
:100670001401F0901501A701960160911C0370917F
:100680001D0380911E0390911F030E94B2108823C6
:1006900041F0C0921C03D0921D03E0921E03F09221
:1006A0001F0387E08ADD682EC0901601D0901701E5
:1006B000E0901801F0901901A701960160910A03DA
:1006C00070910B0380910C0390910D030E94B21066
:1006D0008823A1F1C701B601F5D4882361F06091A8
:1006E0001601709117018091180190911901EAD4B7
:1006F00081110CC017C06091160170911701809193
:1007000018019091190121D58111E9CF809116012D
:1007100090911701A0911801B09119018F839887CA
:10072000A987BA878F819885A985BA8580930A039E
:1007300090930B03A0930C03B0930D03C0901A0188
:10074000D0901B01E0901C01F0901D01A7019601C3
:1007500060910E0370910F0380911003909111032B
:100760000E94B210882341F0C0920E03D0920F0372
:10077000E0921003F092110386E01FDD782E20E056
:1007800030E0A901C501B4010E94B210882351F0E4
:1007900091E080E02091D303213009F490E0292FEB
:1007A000382F02C020E030E0662051F091E080E078
:1007B0004091D403413009F490E0C92ED82E02C0F4
:1007C000C12CD12C772051F091E080E04091D503ED
:1007D000413009F490E0E92EF82E02C0E12CF12C12
:1007E000232B69F084E090E0A0E0B0E08093BE03AA
:1007F0009093BF03A093C003B093C10365DDCD28E0
:1008000069F085E090E0A0E0B0E08093BE039093B3
:10081000BF03A093C003B093C10356DDEF2869F076
:1008200086E090E0A0E0B0E08093BE039093BF0329
:10083000A093C003B093C10347DD11E020E030E096
:10084000A901C501B4010E94B210811101C010E0DC
:100850001093D3036092D4037092D503C0901E010D
:10086000D0901F01E0902001F0902101A701960196
:100870006091300370913103809132039091330382
:100880000E94B210882341F0C0923003D09231030D
:10089000E0923203F09233036091D60389E086DC64
:1008A000C0902201D0902301E0902401F090250116
:1008B000A701960160912603709127038091280378
:1008C000909129030E94B210882341F0C092260320
:1008D000D0922703E0922803F09229036091D70376
:1008E00088E064DCC0900A01D0900B01E0900C011C
:1008F000F0900D01A7019601609100037091010332
:1009000080910203909103030E94B210882341F06A
:10091000C0920003D0920103E0920203F09203031D
:100920008091FE029091FF0239DC43E050E0BE016D
:100930006F5F7F4F8091FE029091FF0225DC29813D
:100940003A8180914201909143018217930738F0D8
:1009500080914401909145012817390710F49A833A
:10096000898369817A8180E090E00E944A11209118
:1009700036013091370140913801509139010E9480
:100980004D1020913A0130913B0140913C01509132
:100990003D010E94B61020913E0130913F014091EF
:1009A0004001509141010E94A1126B017C01809194
:1009B000D703682F70E080E090E00E944A119B010D
:1009C000AC01C701B6010E94A1120E9487116B0100
:1009D0007C01BBD381111FC0C701B60173D3811144
:1009E0001AC020E030E040E853E4C701B6010E949D
:1009F000A1116B017C014B01570120E030E0A901FE
:100A00000E94B21087FF0BC0C701B60190580E9428
:100A10001E11619508C0812C912CA12CB12CB40120
:100A2000C5010E941E11653B08F064EB80E081DB8C
:100A30008091D6029091D702A091D802B091D902AC
:100A4000BC01CD016F5F7F4F8F4F9F4F6093D602E8
:100A50007093D7028093D8029093D90261157105E3
:100A600081059105A9F4C090DA02D090DB02E090F4
:100A7000DC02F090DD02AFEFCA1ADA0AEA0AFA0ADB
:100A8000C092DA02D092DB02E092DC02F092DD0248
:100A90008090DE029090DF02A090E002B090E10230
:100AA000E090EC02F090ED020E944A11A501940141
:100AB0000E94A1122B013C016091DA027091DB02CD
:100AC0008091DC029091DD020E944A11A5019401FF
:100AD0000E94A11220E030E040E85FE40E94A112F1
:100AE0009B01AC01C301B2010E944E10F70160836B
:100AF0007183828393838091E2029091E302A091BB
:100B0000E402B091E5020196A11DB11D8093E202BD
:100B10009093E302A093E402B093E502892B8A2B21
:100B20008B2B99F48091E6029091E702A091E80264
:100B3000B091E9020196A11DB11D8093E602909348
:100B4000E702A093E802B093E9022A960FB6F89460
:100B5000DEBF0FBECDBFDF91CF911F91FF90EF9011
:100B6000DF90CF90BF90AF909F908F907F906F90CD
:100B70005F904F9008955F926F927F928F929F92B5
:100B8000AF92BF92CF92DF92EF92FF920F931F939B
:100B9000CF93DF9384E090E05ED2E7E5F2E08FE967
:100BA000DF011D928A95E9F78AEE92E090935C024C
:100BB00080935B028CEE92E0909396028093950274
:100BC0008EED92E090936A0280936902F093C002E6
:100BD000E093BF02F0935A02E093590281E090E063
:100BE0009093EB028093EA028CE491E09093600290
:100BF00080935F028EEE92E09093ED028093EC0280
:100C00008DEC9CECACECBDE38093DE029093DF02B4
:100C1000A093E002B093E1021092D7031092D603A2
:100C20008DEDE6EFF2E0DF011D928A95E9F781E0B4
:100C30008093D00360910E0170910F01809110019B
:100C4000909111013FD2882361F060910E01709163
:100C50000F01809110019091110134D281110CC0CB
:100C600013C060910E0170910F018091100190915D
:100C700011016BD28111E9CF80900E0190900F018C
:100C8000A0901001B0901101809218039092190366
:100C9000A0921A03B0921B0380911201909113014C
:100CA000A0911401B091150180931C0390931D0332
:100CB000A0931E03B0931F031092170381E090E0EE
:100CC000A0E0B0E08093130390931403A093150366
:100CD000B093160360E087E062DA81E08093170347
:100CE0001092050310920603109207031092080356
:100CF000109204038093CF03609116017091170145
:100D00008091180190911901DDD1882361F06091E3
:100D10001601709117018091180190911901D2D19B
:100D200081110CC013C06091160170911701809160
:100D300018019091190109D28111E9CFC0901601D3
:100D4000D0901701E0901801F0901901C0920A03A9
:100D5000D0920B03E0920C03F0920D0380911A01E4
:100D600090911B01A0911C01B0911D0180930E0375
:100D700090930F03A0931003B093110310920903F3
:100D8000C12CD12C7601C394C0920503D0920603E6
:100D9000E0920703F092080360E086E000DAC1E029
:100DA000C093090310922A03C093CE0380911E01C1
:100DB00090911F01A0912001B091210180933003F7
:100DC00090933103A0933203B093330310922F0317
:100DD000C0922B03D0922C03E0922D03F0922E03AD
:100DE00061E089E0DCD9C0932F0310922003C09307
:100DF000CD038091220190912301A0912401B09113
:100E000025018093260390932703A0932803B09392
:100E1000290310922503C0922103D0922203E0926D
:100E20002303F092240361E088E0B9D9C09325033D
:100E30001092F602C093D10302E30093340313E34C
:100E40001093350394E3692E6092360325E3722EE6
:100E50007092370336E3832E8092380347E3942E53
:100E60009092390358E3A52EA0923A0369E3B62E77
:100E7000B0923B03D1E3D0933C0370E3572E5092E2
:100E80003D03D0933E03D0933F03D09340030093A0
:100E90004103D09342031093430384E393E0909380
:100EA000FD028093FC0280910A0190910B01A091B8
:100EB0000C01B0910D018093000390930103A09366
:100EC0000203B09303031092FB02C092F702D09288
:100ED000F802E092F902F092FA0264E070E080E039
:100EE00090E036D99093FF028093FE0220E030E03C
:100EF000A90160E070E047D9C093FB02C093D20320
:100F000000937A0310937B0360927C0370927D03BD
:100F100080927E0390927F03A0928003B09281031F
:100F2000D093820350928303D0938403D09385039C
:100F3000D093860300938703D0938803109389038B
:100F40008AE793E09093790380937803C0927403C7
:100F5000D0927503E0927603F09277036AE080E026
:100F6000DDD8C093D303C093D403C093D5031092AC
:100F7000BA031092BB031092BC031092BD031092EF
:100F8000C9031092C7031092C8031092CC031092A9
:100F9000CA031092CB031092C6031092C40310929E
:100FA000C5031092C2031092C3031092D60310928D
:100FB000D703DF91CF911F910F91FF90EF90DF90BA
:100FC000CF90BF90AF909F908F907F906F905F90E9
:100FD000089580911203811103C081E08093120370
:100FE00080910403811103C081E080930403809108
:100FF0002A03811103C081E080932A03809120039A
:10100000811103C081E0809320038091F602811159
:1010100003C081E08093F602089560E070E080E80C
:101020009FE7089560E070E080E89FE7089560E042
:1010300070E080E89FEF089560E070E080E89FEF47
:10104000089560E070E080EC9FEF089560E070E04C
:1010500080EC9FEF0895F5DF6093E4037093E50360
:101060008093E6039093E703F1DF6093D8037093D6
:10107000D9038093DA039093DB03CFDF6093E0031F
:101080007093E1038093E2039093E303CBDF6093DB
:10109000DC037093DD038093DE039093DF03C7DFEF
:1010A0006093E8037093E9038093EA039093EB0362
:1010B000C3DF6093EC037093ED038093EE03909392
:1010C000EF030895CF92DF92EF92FF92CF936B01DF
:1010D0007C012091E0033091E1034091E2035091C3
:1010E000E3030E94B210C1E0882371F02091E8036D
:1010F0003091E9034091EA035091EB03C701B60137
:101100000E94B2108111C0E08C2FCF91FF90EF9020
:10111000DF90CF9008950F931F938B019C010027C0
:10112000112720783F770115110520483F4749F4E2
:10113000AB01BC016F77772781E0452B462B472B0E
:1011400009F480E01F910F910895E5CF08951F9253
:101150000F920FB60F9211242F933F934F935F93EB
:101160006F937F938F939F93AF93BF93EF93FF936F
:10117000E0914601F09147010995FF91EF91BF91F0
:10118000AF919F918F917F916F915F914F913F911F
:101190002F910F900FBE0F901F9018951F920F92D6
:1011A0000FB60F9211242F933F934F935F936F933A
:1011B0007F938F939F93AF93BF93EF93FF93E091B0
:1011C0004801F09149010995FF91EF91BF91AF91CD
:1011D0009F918F917F916F915F914F913F912F914F
:1011E0000F900FBE0F901F9018951F920F920FB681
:1011F0000F9211242F933F938F939F93AF93BF939D
:1012000080917A0190917B01A0917C01B0917D0148
:101210003091790123E0230F2D3720F40196A11D91
:10122000B11D05C026E8230F0296A11DB11D209314
:10123000790180937A0190937B01A0937C01B09314
:101240007D0180917E0190917F01A0918001B091FC
:1012500081010196A11DB11D80937E0190937F01B4
:10126000A0938001B0938101BF91AF919F918F9125
:101270003F912F910F900FBE0F901F90189578946B
:1012800084B5826084BD84B5816084BD85B582608B
:1012900085BD85B5816085BDEEE6F0E08081816029
:1012A0008083E1E8F0E01082808182608083808129
:1012B00081608083E0E8F0E0808181608083E1EB01
:1012C000F0E0808184608083E0EBF0E080818160E9
:1012D0008083EAE7F0E0808184608083808182609F
:1012E0008083808181608083808180688083109288
:1012F000C10008958E3008F08E50877020914A0109
:1013000090E4299F90011124822B80937C0080918E
:101310007A00806480937A0080917A0086FDFCCF09
:10132000809178002091790090E0922B089583308D
:1013300081F028F4813099F08230A1F0089587304F
:10134000A9F08830B9F08430D1F4809180008F7D8D
:1013500003C0809180008F7780938000089584B5CA
:101360008F7702C084B58F7D84BD08958091B000D1
:101370008F7703C08091B0008F7D8093B000089577
:10138000CF93DF9390E0FC01E458FF4F2491FC01E0
:10139000E057FF4F8491882361F190E0880F991FF7
:1013A000FC01E854FF4FC591D491FC01E255FF4F79
:1013B000A591B491611109C09FB7F89488812095D7
:1013C00082238883EC912E230BC0623061F49FB797
:1013D000F8943881822F809583238883EC912E2B7B
:1013E0002C939FBF06C08FB7F894E8812E2B2883DB
:1013F0008FBFDF91CF9108951F93CF93DF93282F55
:1014000030E0F901E859FF4F8491F901E458FF4FAA
:10141000D491F901E057FF4FC491CC23C1F0162FAE
:10142000811185DFEC2FF0E0EE0FFF1FE255FF4F3B
:10143000A591B4918FB7F894111105C09C91ED2F2F
:10144000E095E92302C0EC91ED2BEC938FBFDF9187
:10145000CF911F910895CF93DF93282F30E0F901AA
:10146000E859FF4F8491F901E458FF4FD491F901F5
:10147000E057FF4FC491CC2389F0811158DFEC2F46
:10148000F0E0EE0FFF1FEC55FF4FA591B491EC91EA
:10149000ED2381E090E021F480E002C080E090E064
:1014A000DF91CF910895FC01918D228D892F90E0DD
:1014B000805C9F4F821B91098F7399270895FC01CF
:1014C000918D828D981731F0828DE80FF11D858DF9
:1014D00090E008958FEF9FEF0895FC01918D828D2C
:1014E000981761F0828DDF01A80FB11D5D968C9178
:1014F000928D9F5F9F73928F90E008958FEF9FEF83
:101500000895FC01848DDF01A80FB11DA35ABF4FC0
:101510002C91848D90E001968F739927848FA689F2
:10152000B7892C93A089B1898C9180648C93938D19
:10153000848D981306C00288F389E02D80818F7D09
:1015400080830895CF93DF93EC01888D8823C1F0C9
:10155000EA89FB89808185FD05C0A889B9898C91BC
:1015600086FD0EC00FB607FCF5CF808185FFF2CF58
:10157000A889B9898C9185FFEDCFCE01C2DFE8CF74
:10158000DF91CF910895EF92FF920F931F93CF9326
:10159000DF93EC0181E0888F9B8D8C8D981305C0C3
:1015A000E889F989808185FD23C0F62E0B8D10E036
:1015B0000F5F1F4F0F731127E02E8C8DE8120BC0A9
:1015C0000FB607FCFACFE889F989808185FFF5CF4E
:1015D000CE0197DFF2CF8B8DFE01E80FF11DE35AAC
:1015E000FF4FF0820B8FEA89FB898081806207C000
:1015F000EE89FF896083E889F9898081806480832E
:1016000081E090E0DF91CF911F910F91FF90EF90DB
:101610000895CF92DF92EF92FF921F93CF93DF93C3
:10162000EC016A017B01122FE889F98982E080834D
:101630004115514E61057105A9F060E079E08DE337
:1016400090E0A7019601FBD7DA01C9010197A10932
:10165000B109B695A79597958795AC01411580E19D
:101660005807A0F0E889F989108260E874E88EE1F3
:1016700090E0A7019601E3D7BA01A90141505109B1
:10168000610971097695679557954795EC85FD85B4
:101690005083EE85FF854083188EEC89FD89108389
:1016A000EA89FB89808180618083EA89FB89808166
:1016B00088608083EA89FB89808180688083EA89E9
:1016C000FB8980818F7D8083DF91CF911F91FF9077
:1016D000EF90DF90CF9008951F920F920FB60F9268
:1016E00011242F938F939F93EF93FF93E091920197
:1016F000F09193018081E0919801F091990182FD30
:1017000012C0908180919B018F5F8F7320919C010B
:10171000821751F0E0919B01F0E0EE57FE4F958F5C
:1017200080939B0101C08081FF91EF919F918F91E8
:101730002F910F900FBE0F901F9018951F920F9230
:101740000FB60F9211242F933F934F935F936F9394
:101750007F938F939F93AF93BF93EF93FF9382E811
:1017600091E0CFDEFF91EF91BF91AF919F918F916B
:101770007F916F915F914F913F912F910F900FBE8D
:101780000F901F901895E2E8F1E01382128288EE24
:1017900093E0A0E0B0E084839583A683B78384E6DA
:1017A00091E09183808385EC90E09587848784EC39
:1017B00090E09787868780EC90E0918B808B81EC1E
:1017C00090E0938B828B82EC90E0958B848B86ECFF
:1017D00090E0978B868B118E128E138E148E089547
:1017E0008F929F92AF92BF92CF92DF92EF92FF9231
:1017F0000F931F93CF93DF937C018B016C0182E0E9
:10180000C80ED11C4701E5E08E0E911CC0E0D0E06F
:10181000F60161916F014AE050E0C801C5D05C015A
:101820006EE2C80167D08A0D9B1DC80FD91FC8146E
:10183000D90471F74AE050E0F7016581C801B4D0DE
:101840008C0F9D1FDF91CF911F910F91FF90EF9013
:10185000DF90CF90BF90AF909F908F900895EFE171
:10186000F2E084E791E091838083128213821482F4
:1018700015820895CF92DF92EF92FF920F931F93FC
:10188000CF93DF936C017A018B01C0E0D0E0CE15DD
:10189000DF0589F0D8016D918D01D601ED91FC91A4
:1018A0000190F081E02DC6010995892B11F47E018C
:1018B00002C02196ECCFC701DF91CF911F910F910C
:1018C000FF90EF90DF90CF9008956115710579F04A
:1018D000FB0101900020E9F73197AF01461B570B40
:1018E000DC01ED91FC910280F381E02D099480E010
:1018F00090E00895DC01ED91FC910190F081E02DE4
:1019000009944F925F926F927F92EF92FF920F93A2
:101910001F93CF93DF93CDB7DEB7A1970FB6F8949F
:10192000DEBF0FBECDBF7C01FA01CB0119A2223070
:1019300008F42AE08E010F5D1F4F422E512C612CBE
:10194000712CBF01A30192017AD6F901CA0101509D
:1019500011096A3014F4605D01C0695CD8016C93B0
:10196000232B242B252B69F7B801C701AEDFA196E5
:101970000FB6F894DEBF0FBECDBFDF91CF911F91A0
:101980000F91FF90EF907F906F905F904F90089530
:101990002115310541F4DC01ED91FC910190F081BC
:1019A000E02D642F0994ADCF9A01462F50E060E0FE
:1019B00070E0EECF813039F018F0823051F00895A8
:1019C00010926E00089580916F008D7F80936F005C
:1019D0000895809170008D7F8093700081E08093E6
:1019E000B0008091B100887F84608093B100109234
:1019F000B3000895CF93C82F80914B018C1307C07B
:101A0000E2ECF0E0E4918FEF80934B0101C0EFEF47
:101A10008E2FD0DF60E08C2FCF91EECC1F920F92F3
:101A20000FB60F9211242F933F934F935F936F93B1
:101A30007F938F939F93AF93BF93EF93FF93809187
:101A4000280290912902A0912A02B0912B02892BA1
:101A50008A2B8B2B51F180912502E0912602F09187
:101A60002702908189278083809128029091290202
:101A7000A0912A02B0912B02181619061A061B060D
:101A8000BCF48091280290912902A0912A02B09181
:101A90002B020197A109B109809328029093290292
:101AA000A0932A02B0932B0203C080914B01A2DFC6
:101AB000FF91EF91BF91AF919F918F917F916F9126
:101AC0005F914F913F912F910F900FBE0F901F90FC
:101AD00018954F925F926F927F92AF92BF92CF9282
:101AE000DF92EF92FF920F931F93CF93DF93CDB7C7
:101AF000DEB729013A019B01AC01241935094609D9
:101B0000570989899A89AB89BC89BC01CD016A19B9
:101B10007B098C099D0978D5A801970124193509FD
:101B200046095709AED5CA01B9016A0D7B1D8C1D46
:101B30009D1DDF91CF911F910F91FF90EF90DF904E
:101B4000CF90BF90AF907F906F905F904F9008952F
:101B500040E052EC61E070E080E090E000C026E000
:101B600082E891E056CD1F920F920FB60F9211248A
:101B70002F933F934F935F936F937F938F939F9395
:101B8000AF93BF93EF93FF9386E08093B200809171
:101B90002C028F5F80932C02893119F410922C0251
:101BA0001ED2FF91EF91BF91AF919F918F917F9145
:101BB0006F915F914F913F912F910F900FBE0F90BA
:101BC0001F90189586E08093B200A0E7B0E08C915A
:101BD0008E7F8C93E0EBF0E080818C7F8083E1EB63
:101BE000F0E08081877F8083808186608083808130
:101BF0008E7F80838C9181608C93089581E008951D
:101C00001F920F920FB60F9211242F933F934F9371
:101C10005F936F937F938F939F93AF93BF93EF9354
:101C2000FF9380912E0287FF05C0109285001092CD
:101C300084001BC020912E02022E000C330B8091D9
:101C40002D0290E02817390784F480912E02082E87
:101C5000000C990BFC01EE0FFF1F8E0F9F1FFC0164
:101C6000E15DFD4F808186FD15C080912E028F5F62
:101C700080932E0220912E02022E000C330B8091B5
:101C80002D0290E028173907BCF480912E028C3089
:101C90005CF112C080912E02082E000C990BFC0101
:101CA000EE0FFF1F8E0F9F1FFC01E15DFD4F808136
:101CB00060E08F73A1DBD9CF809184009091850083
:101CC000049680349C4918F480E49CE905C0809116
:101CD00084009091850004969093890080938800F9
:101CE0008FEF80932E023AC02091840030918500BE
:101CF00080912E02082E000C990BFC01EE0FFF1FA5
:101D00008E0F9F1FFC01E15DFD4F81819281820F4B
:101D1000931F909389008093880080912E02082E53
:101D2000000C990BFC01EE0FFF1F8E0F9F1FFC0193
:101D3000E15DFD4F808186FF11C080912E02082E4B
:101D4000000C990BFC01EE0FFF1F8E0F9F1FFC0173
:101D5000E15DFD4F808161E08F734EDBFF91EF917C
:101D6000BF91AF919F918F917F916F915F914F91B3
:101D70003F912F910F900FBE0F901F901895FC016F
:101D800090912D029C30A0F481E0890F80932D0268
:101D90009083892F90E0FC01EE0FFF1F8E0F9F1F95
:101DA000FC01E15DFD4F88EB9BE092838183089508
:101DB0008FEF80830895DF92EF92FF920F931F932E
:101DC000CF93DF93EC01D62E7A01890188818C3084
:101DD00008F068C061E08D2DD3DA8881E82FF0E04B
:101DE0009F01220F331FE20FF31FE15DFD4F9D2D79
:101DF0009F732081207CD22ED92AD08260E272E0AB
:101E0000AB014E195F0957FF02C04D5F5F4F5595FB
:101E1000479555954795498340E659E09A01201B1F
:101E2000310B37FF02C02D5F3F4F35952795359514
:101E300027952A836CE0F7D39CE0899FB001112499
:101E400040E050E09A01260F371FF901EE0FFF1F07
:101E50002E0F3F1FF901E15DFD4F908196FD16C0E9
:101E60004F5F5F4F4C30510569F781110FC01092E1
:101E7000800082E08093810010928500109284009F
:101E8000B19A80916F00826080936F00E881F0E0EA
:101E9000CF01880F991FE80FF91FE15DFD4F808189
:101EA000806480838881DF91CF911F910F91FF9093
:101EB000EF90DF90089520E639E040E252E07BCFDA
:101EC000FC0190819C3080F5818128E830E0281B5E
:101ED000310987FD3395220F331F220F331F6217FD
:101EE00073077CF0828128E532E0281B310987FDE9
:101EF0003395220F331F220F331F621773070CF421
:101F00009B0122503109220F331F4FB7F894892FBC
:101F100090E0FC01EE0FFF1F8E0F9F1FFC01E15DA3
:101F2000FD4F328321834FBF0895AF92BF92CF926E
:101F3000DF92EF92FF920F931F93CF93DF93EC0109
:101F4000603282E078070CF03EC077FD06C0653B4A
:101F500071052CF064EB70E002C060E070E08981F4
:101F600028E830E05901A81AB10887FDB394AA0CFB
:101F7000BB1CAA0CBB1C0B2C000CCC08DD08072ECC
:101F8000000C880B990B2A8108E512E0021B11094D
:101F900027FD1395000F111F000F111F012E000CBC
:101FA000220B330B3F932F931F930F9314EBE12ED0
:101FB000F12C00E010E020E030E0A9018ADD0F9074
:101FC0000F900F900F90CE01DF91CF911F910F9145
:101FD000FF90EF90DF90CF90BF90AF9071CF809146
:101FE000540291E0980F90935402882339F021E035
:101FF00030E0309356022093550207C078940E9437
:102000007E02F89480915402815080935402089586
:102010000F931F93CF93DF931F92CDB7DEB781E06D
:1020200089832DD995DD00915E0110915F01F80142
:10203000118210820E94BB05C5DD81E0F80120817C
:102040003181232B09F080E0898378947894898109
:102050008823C1F081E0F80120813181232B09F42C
:1020600080E0809353029091530281E0911180E0CF
:1020700089838981882311F0C1DD02C080E090E06E
:102080008983E5CF0E94E907F89480E090E00F9003
:10209000DF91CF911F910F9108955058BB27AA2728
:1020A0000ED0FAC1EBD130F0F0D120F031F49F3FE7
:1020B00011F41EF4E0C10EF4E095E7FBADC1E92F89
:1020C000FCD180F3BA17620773078407950718F0ED
:1020D00071F49EF52BC20EF4E0950B2EBA2FA02DB5
:1020E0000B01B90190010C01CA01A0011124FF27C5
:1020F000591B99F0593F50F4503E68F11A16F040C0
:10210000A22F232F342F4427585FF3CF46953795BE
:102110002795A795F0405395C9F77EF41F16BA0B83
:10212000620B730B840BBAF09150A1F0FF0FBB1F31
:10213000661F771F881FC2F70EC0BA0F621F731F7A
:10214000841F48F4879577956795B795F7959E3FD7
:1021500008F0B3CF9395880F08F09927EE0F979565
:102160008795089535D108F481E008950CD094C185
:102170008CD140F083D130F021F45F3F19F04CC195
:102180005111D5C178C199D198F39923C9F3552339
:10219000B1F3951B550BBB27AA276217730784075A
:1021A00038F09F5F5F4F220F331F441FAA1FA9F310
:1021B00033D00E2E3AF0E0E830D091505040E69502
:1021C000001CCAF729D0FE2F27D0660F771F881F63
:1021D000BB1F261737074807AB07B0E809F0BB0B52
:1021E000802DBF01FF2793585F4F2AF09E3F510576
:1021F00068F012C19CC15F3FECF3983EDCF386951A
:1022000077956795B795F7959F5FC9F7880F911DEB
:102210009695879597F90895E1E0660F771F881FD7
:10222000BB1F621773078407BA0720F0621B730B8A
:10223000840BBA0BEE1F88F7E095089546D188F01D
:102240009F5790F0B92F9927B751A0F0D1F0660FA2
:10225000771F881F991F1AF0BA95C9F712C0B130BD
:1022600081F064D1B1E0089561C1672F782F88278C
:10227000B85F39F0B93FCCF3869577956795B395FC
:10228000D9F73EF490958095709561957F4F8F4F6B
:102290009F4F0895E89409C097FB3EF49095809570
:1022A000709561957F4F8F4F9F4F9923A9F0F92F1C
:1022B00096E9BB279395F695879577956795B7959A
:1022C000F111F8CFFAF4BB0F11F460FF1BC06F5F80
:1022D0007F4F8F4F9F4F16C0882311F096E911C092
:1022E000772321F09EE8872F762F05C0662371F0B3
:1022F00096E8862F70E060E02AF09A95660F771FC7
:10230000881FDAF7880F9695879597F90895F7D083
:1023100080F09F3740F491110EF009C160E070E049
:1023200080E89FEB089526F41B16611D711D811D29
:1023300079C093C0A3D018F011F0A7D038F49BC097
:10234000F6C0E92FBAD0B0F35523C9F3E7FB621703
:10235000730784079507A8F199F3E92FFF278823CE
:102360002AF03197660F771F881FDAF7952F5527C8
:10237000442332F091505040220F331F441FD2F7B4
:10238000BB27E91BF50B621B730B840BB109C1F270
:1023900022F4620F731F841FB11D31972AF0660F5C
:1023A000771F881FBB1FEFCF915050405AF041F06C
:1023B000882332F0660F771F881F91505040C1F775
:1023C00093954BC08695779567959F5FD9F7F8CF22
:1023D000990F0008550FAA0BE0E8FEEF1616170636
:1023E000E807F907C0F012161306E407F50798F09E
:1023F000621B730B840B950B39F40A2661F0232BB7
:10240000242B252B21F408950A2609F4A140A69532
:102410008FEF811D811D089597F99F6780E870E017
:1024200060E00895882371F4772321F09850872B7A
:10243000762F07C0662311F499270DC09051862B83
:1024400070E060E02AF09A95660F771F881FDAF730
:10245000880F9695879597F908959F3F31F0915091
:1024600020F4879577956795B795880F911D969578
:10247000879597F908959FEF80EC089500240A94BA
:102480001616170618060906089500240A9412164F
:102490001306140605060895092E0394000C11F482
:1024A000882352F0BB0F40F4BF2B11F460FF04C02F
:1024B0006F5F7F4F8F4F9F4F089557FD9058440F88
:1024C000551F59F05F3F71F04795880F97FB991F93
:1024D00061F09F3F79F08795089512161306140650
:1024E000551FF2CF4695F1DF08C0161617061806DD
:1024F000991FF1CF86957105610508940895E5DF70
:10250000A0F0BEE7B91788F4BB279F3860F4161611
:10251000B11D672F782F8827985FF7CF869577951D
:102520006795B11D93959639C8F30895E894BB2734
:1025300066277727CB0197F908954ADF08F48FEFD4
:1025400008950BD0A9CF9ADF28F09FDF18F09523CC
:1025500009F062CF90CF1124EACFAFDFA0F3959FAF
:10256000D1F3950F50E0551F629FF001729FBB277A
:10257000F00DB11D639FAA27F00DB11DAA1F649F26
:102580006627B00DA11D661F829F2227B00DA11DD9
:10259000621F739FB00DA11D621F839FA00D611D5F
:1025A000221F749F3327A00D611D231F849F600D80
:1025B000211D822F762F6A2F11249F5750408AF0B9
:1025C000E1F088234AF0EE0FFF1FBB1F661F771F45
:1025D000881F91505040A9F79E3F510570F01CCFC5
:1025E000A6CF5F3FECF3983EDCF386957795679531
:1025F000B795F795E7959F5FC1F7FE2B880F911D63
:102600009695879597F90895DB018F939F9355D001
:10261000BF91AF91A29F800D911DA39F900DB29F7E
:10262000900D11240895991B79E004C0991F961705
:1026300008F0961B881F7A95C9F780950895A1E246
:102640001A2EAA1BBB1BFD010DC0AA1FBB1FEE1F2C
:10265000FF1FA217B307E407F50720F0A21BB30B77
:10266000E40BF50B661F771F881F991F1A9469F7F3
:1026700060957095809590959B01AC01BD01CF014F
:102680000895052E97FB16F400940FD057FD05D042
:10269000D6DF07FC02D046F408C05095409530952F
:1026A00021953F4F4F4F5F4F0895909580957095BE
:1026B00061957F4F8F4F9F4F08950FD0A59F900D2D
:1026C000B49F900DA49F800D911D11240895EE0FCD
:1026D000FF1F0590F491E02D0994A29FB001B39FD4
:1026E000C001A39F700D811D1124911DB29F700D1B
:0C26F000811D1124911D0895F894FFCF66
:1026FC000000F003800001000000CDCCCC3DCDCC1F
:10270C00CC3D00000000CDCCCC3D00000000000012
:10271C000000000000000000803F0000A04100000D
:10272C00A040000000000000004400000044000035
:10273C00B442FF030002A608A60801FF46697865AB
:10274C0064537465704469736372657465005702F1
:10275C0000000000C30A3A0C530A6D0A5F0AA20A71
:06276C0000000000F00B6C
:00000001FF
